{
  "_format": "hh-sol-artifact-1",
  "contractName": "InsuranceContract",
  "sourceName": "contracts/insurance.sol",
  "abi": [
    {
      "anonymous": false,
      "inputs": [
        {
          "indexed": true,
          "internalType": "address",
          "name": "user",
          "type": "address"
        },
        {
          "indexed": true,
          "internalType": "address",
          "name": "documentOwner",
          "type": "address"
        },
        {
          "indexed": false,
          "internalType": "uint256",
          "name": "timestamp",
          "type": "uint256"
        },
        {
          "indexed": false,
          "internalType": "string",
          "name": "reason",
          "type": "string"
        },
        {
          "indexed": false,
          "internalType": "string",
          "name": "documentHash",
          "type": "string"
        },
        {
          "indexed": false,
          "internalType": "bool",
          "name": "success",
          "type": "bool"
        }
      ],
      "name": "DocumentAccessed",
      "type": "event"
    },
    {
      "anonymous": false,
      "inputs": [
        {
          "indexed": true,
          "internalType": "address",
          "name": "InsuranceFirm",
          "type": "address"
        },
        {
          "indexed": true,
          "internalType": "address",
          "name": "clientAddress",
          "type": "address"
        },
        {
          "indexed": false,
          "internalType": "uint256",
          "name": "Index",
          "type": "uint256"
        }
      ],
      "name": "DocumentGenerated",
      "type": "event"
    },
    {
      "anonymous": false,
      "inputs": [
        {
          "indexed": true,
          "internalType": "address",
          "name": "previousOwner",
          "type": "address"
        },
        {
          "indexed": true,
          "internalType": "address",
          "name": "newOwner",
          "type": "address"
        }
      ],
      "name": "OwnershipTransferred",
      "type": "event"
    },
    {
      "inputs": [
        {
          "internalType": "address",
          "name": "InsuranceFirmAddress",
          "type": "address"
        },
        {
          "internalType": "uint256",
          "name": "index",
          "type": "uint256"
        },
        {
          "internalType": "string",
          "name": "reason",
          "type": "string"
        }
      ],
      "name": "accessDocument",
      "outputs": [],
      "stateMutability": "nonpayable",
      "type": "function"
    },
    {
      "inputs": [],
      "name": "brokerDashboard",
      "outputs": [
        {
          "components": [
            {
              "internalType": "address",
              "name": "insuranceCompany",
              "type": "address"
            },
            {
              "internalType": "address",
              "name": "intendedClient",
              "type": "address"
            },
            {
              "internalType": "uint256",
              "name": "Index",
              "type": "uint256"
            }
          ],
          "internalType": "struct InsuranceContract.documentGenerated[]",
          "name": "",
          "type": "tuple[]"
        }
      ],
      "stateMutability": "view",
      "type": "function"
    },
    {
      "inputs": [
        {
          "internalType": "address",
          "name": "InsuranceFirm",
          "type": "address"
        },
        {
          "internalType": "uint256",
          "name": "index",
          "type": "uint256"
        },
        {
          "internalType": "address",
          "name": "user",
          "type": "address"
        }
      ],
      "name": "getAccessControl",
      "outputs": [
        {
          "internalType": "bool",
          "name": "",
          "type": "bool"
        }
      ],
      "stateMutability": "view",
      "type": "function"
    },
    {
      "inputs": [
        {
          "internalType": "address",
          "name": "user",
          "type": "address"
        }
      ],
      "name": "getAllDocuments",
      "outputs": [
        {
          "components": [
            {
              "internalType": "uint256",
              "name": "indexNumber",
              "type": "uint256"
            },
            {
              "internalType": "address",
              "name": "InsuranceFirm",
              "type": "address"
            },
            {
              "internalType": "address",
              "name": "clientAddress",
              "type": "address"
            },
            {
              "internalType": "string",
              "name": "documentHash",
              "type": "string"
            },
            {
              "internalType": "uint256",
              "name": "timestamp",
              "type": "uint256"
            },
            {
              "internalType": "bool",
              "name": "isValid",
              "type": "bool"
            },
            {
              "internalType": "uint256[]",
              "name": "traceabilityIndexes",
              "type": "uint256[]"
            }
          ],
          "internalType": "struct InsuranceContract.Document[]",
          "name": "",
          "type": "tuple[]"
        }
      ],
      "stateMutability": "view",
      "type": "function"
    },
    {
      "inputs": [
        {
          "internalType": "address",
          "name": "insuranceCompany",
          "type": "address"
        }
      ],
      "name": "getClientDocuments",
      "outputs": [
        {
          "components": [
            {
              "internalType": "uint256",
              "name": "indexNumber",
              "type": "uint256"
            },
            {
              "internalType": "address",
              "name": "InsuranceFirm",
              "type": "address"
            },
            {
              "internalType": "address",
              "name": "clientAddress",
              "type": "address"
            },
            {
              "internalType": "string",
              "name": "documentHash",
              "type": "string"
            },
            {
              "internalType": "uint256",
              "name": "timestamp",
              "type": "uint256"
            },
            {
              "internalType": "bool",
              "name": "isValid",
              "type": "bool"
            },
            {
              "internalType": "uint256[]",
              "name": "traceabilityIndexes",
              "type": "uint256[]"
            }
          ],
          "internalType": "struct InsuranceContract.Document[]",
          "name": "",
          "type": "tuple[]"
        }
      ],
      "stateMutability": "view",
      "type": "function"
    },
    {
      "inputs": [
        {
          "internalType": "address",
          "name": "clientAddress",
          "type": "address"
        },
        {
          "internalType": "uint256",
          "name": "index",
          "type": "uint256"
        }
      ],
      "name": "getDocumentDetails",
      "outputs": [
        {
          "components": [
            {
              "internalType": "uint256",
              "name": "indexNumber",
              "type": "uint256"
            },
            {
              "internalType": "address",
              "name": "InsuranceFirm",
              "type": "address"
            },
            {
              "internalType": "address",
              "name": "clientAddress",
              "type": "address"
            },
            {
              "internalType": "string",
              "name": "documentHash",
              "type": "string"
            },
            {
              "internalType": "uint256",
              "name": "timestamp",
              "type": "uint256"
            },
            {
              "internalType": "bool",
              "name": "isValid",
              "type": "bool"
            },
            {
              "internalType": "uint256[]",
              "name": "traceabilityIndexes",
              "type": "uint256[]"
            }
          ],
          "internalType": "struct InsuranceContract.Document",
          "name": "",
          "type": "tuple"
        }
      ],
      "stateMutability": "view",
      "type": "function"
    },
    {
      "inputs": [
        {
          "internalType": "address",
          "name": "InsuranceFirm",
          "type": "address"
        },
        {
          "internalType": "uint256",
          "name": "index",
          "type": "uint256"
        }
      ],
      "name": "getDocumentTraceability",
      "outputs": [
        {
          "components": [
            {
              "internalType": "address",
              "name": "user",
              "type": "address"
            },
            {
              "internalType": "uint256",
              "name": "timestamp",
              "type": "uint256"
            },
            {
              "internalType": "string",
              "name": "reason",
              "type": "string"
            },
            {
              "internalType": "bool",
              "name": "success",
              "type": "bool"
            }
          ],
          "internalType": "struct InsuranceContract.Traceability[]",
          "name": "",
          "type": "tuple[]"
        }
      ],
      "stateMutability": "view",
      "type": "function"
    },
    {
      "inputs": [
        {
          "internalType": "address",
          "name": "insuranceCompany",
          "type": "address"
        },
        {
          "internalType": "address",
          "name": "clientAddress",
          "type": "address"
        }
      ],
      "name": "hasAccessToInsurance",
      "outputs": [
        {
          "internalType": "bool",
          "name": "",
          "type": "bool"
        }
      ],
      "stateMutability": "view",
      "type": "function"
    },
    {
      "inputs": [
        {
          "internalType": "address",
          "name": "clientAddress",
          "type": "address"
        },
        {
          "internalType": "uint256",
          "name": "index",
          "type": "uint256"
        }
      ],
      "name": "markDocumentAsInvalid",
      "outputs": [],
      "stateMutability": "nonpayable",
      "type": "function"
    },
    {
      "inputs": [],
      "name": "owner",
      "outputs": [
        {
          "internalType": "address",
          "name": "",
          "type": "address"
        }
      ],
      "stateMutability": "view",
      "type": "function"
    },
    {
      "inputs": [],
      "name": "renounceOwnership",
      "outputs": [],
      "stateMutability": "nonpayable",
      "type": "function"
    },
    {
      "inputs": [
        {
          "internalType": "address",
          "name": "clientAddress",
          "type": "address"
        },
        {
          "internalType": "address",
          "name": "insuranceCompany",
          "type": "address"
        }
      ],
      "name": "revokeAccess",
      "outputs": [],
      "stateMutability": "nonpayable",
      "type": "function"
    },
    {
      "inputs": [
        {
          "internalType": "address",
          "name": "InsuranceFirm",
          "type": "address"
        },
        {
          "internalType": "uint256",
          "name": "index",
          "type": "uint256"
        },
        {
          "internalType": "address",
          "name": "user",
          "type": "address"
        },
        {
          "internalType": "bool",
          "name": "hasAccess",
          "type": "bool"
        }
      ],
      "name": "setAccessControl",
      "outputs": [],
      "stateMutability": "nonpayable",
      "type": "function"
    },
    {
      "inputs": [
        {
          "internalType": "address",
          "name": "insuranceCompany",
          "type": "address"
        },
        {
          "internalType": "address",
          "name": "clientAddress",
          "type": "address"
        },
        {
          "internalType": "string",
          "name": "documentHash",
          "type": "string"
        }
      ],
      "name": "submitDocument",
      "outputs": [],
      "stateMutability": "nonpayable",
      "type": "function"
    },
    {
      "inputs": [
        {
          "internalType": "address",
          "name": "newOwner",
          "type": "address"
        }
      ],
      "name": "transferOwnership",
      "outputs": [],
      "stateMutability": "nonpayable",
      "type": "function"
    }
  ],
  "bytecode": "0x60806040523480156200001157600080fd5b5062000032620000266200003860201b60201c565b6200004060201b60201c565b62000104565b600033905090565b60008060009054906101000a900473ffffffffffffffffffffffffffffffffffffffff169050816000806101000a81548173ffffffffffffffffffffffffffffffffffffffff021916908373ffffffffffffffffffffffffffffffffffffffff1602179055508173ffffffffffffffffffffffffffffffffffffffff168173ffffffffffffffffffffffffffffffffffffffff167f8be0079c531659141344cd1fd0a4f28419497f9722a3daafe3b4186f6b6457e060405160405180910390a35050565b6143cb80620001146000396000f3fe608060405234801561001057600080fd5b50600436106100f55760003560e01c806384b2848711610097578063cecf15e311610066578063cecf15e314610284578063e3766c2f146102a0578063f2fde38b146102d0578063f63f3f89146102ec576100f5565b806384b28487146101fc5780638da5cb5b14610218578063c030224a14610236578063c2ee0dbe14610254576100f5565b806359ded538116100d357806359ded538146101765780635f6ea340146101a65780636029801b146101c2578063715018a6146101f2576100f5565b806323b60fd9146100fa57806332d125cd1461012a578063472879d514610146575b600080fd5b610114600480360381019061010f9190612f8c565b610308565b60405161012191906131e7565b60405180910390f35b610144600480360381019061013f9190612f8c565b610709565b005b610160600480360381019061015b9190613209565b610881565b60405161016d919061326b565b60405180910390f35b610190600480360381019061018b9190613286565b610c6a565b60405161019d9190613418565b60405180910390f35b6101c060048036038101906101bb919061343a565b610f42565b005b6101dc60048036038101906101d79190612f8c565b6111b5565b6040516101e9919061359f565b60405180910390f35b6101fa61146b565b005b610216600480360381019061021191906136f6565b61147f565b005b610220611ce7565b60405161022d9190613774565b60405180910390f35b61023e611d10565b60405161024b9190613880565b60405180910390f35b61026e6004803603810190610269919061343a565b611ed7565b60405161027b919061326b565b60405180910390f35b61029e600480360381019061029991906138a2565b611f6b565b005b6102ba60048036038101906102b59190613286565b612677565b6040516102c79190613418565b60405180910390f35b6102ea60048036038101906102e59190613286565b61294a565b005b6103066004803603810190610301919061393d565b6129cd565b005b610310612e0f565b82610319611ce7565b73ffffffffffffffffffffffffffffffffffffffff163373ffffffffffffffffffffffffffffffffffffffff16148061037d57508073ffffffffffffffffffffffffffffffffffffffff163373ffffffffffffffffffffffffffffffffffffffff16145b8061040e5750600560008273ffffffffffffffffffffffffffffffffffffffff1673ffffffffffffffffffffffffffffffffffffffff16815260200190815260200160002060003373ffffffffffffffffffffffffffffffffffffffff1673ffffffffffffffffffffffffffffffffffffffff16815260200190815260200160002060009054906101000a900460ff165b61044d576040517f08c379a000000000000000000000000000000000000000000000000000000000815260040161044490613a01565b60405180910390fd5b600260008573ffffffffffffffffffffffffffffffffffffffff1673ffffffffffffffffffffffffffffffffffffffff1681526020019081526020016000208054905083106104d1576040517f08c379a00000000000000000000000000000000000000000000000000000000081526004016104c890613a6d565b60405180910390fd5b600260008573ffffffffffffffffffffffffffffffffffffffff1673ffffffffffffffffffffffffffffffffffffffff168152602001908152602001600020838154811061052257610521613a8d565b5b90600052602060002090600702016040518060e0016040529081600082015481526020016001820160009054906101000a900473ffffffffffffffffffffffffffffffffffffffff1673ffffffffffffffffffffffffffffffffffffffff1673ffffffffffffffffffffffffffffffffffffffff1681526020016002820160009054906101000a900473ffffffffffffffffffffffffffffffffffffffff1673ffffffffffffffffffffffffffffffffffffffff1673ffffffffffffffffffffffffffffffffffffffff16815260200160038201805461060190613aeb565b80601f016020809104026020016040519081016040528092919081815260200182805461062d90613aeb565b801561067a5780601f1061064f5761010080835404028352916020019161067a565b820191906000526020600020905b81548152906001019060200180831161065d57829003601f168201915b50505050508152602001600482015481526020016005820160009054906101000a900460ff16151515158152602001600682018054806020026020016040519081016040528092919081815260200182805480156106f757602002820191906000526020600020905b8154815260200190600101908083116106e3575b50505050508152505091505092915050565b610711611ce7565b73ffffffffffffffffffffffffffffffffffffffff163373ffffffffffffffffffffffffffffffffffffffff161461077e576040517f08c379a000000000000000000000000000000000000000000000000000000000815260040161077590613b8e565b60405180910390fd5b600260008373ffffffffffffffffffffffffffffffffffffffff1673ffffffffffffffffffffffffffffffffffffffff168152602001908152602001600020805490508110610802576040517f08c379a00000000000000000000000000000000000000000000000000000000081526004016107f990613a6d565b60405180910390fd5b6000600260008473ffffffffffffffffffffffffffffffffffffffff1673ffffffffffffffffffffffffffffffffffffffff168152602001908152602001600020828154811061085557610854613a8d565b5b906000526020600020906007020160050160006101000a81548160ff0219169083151502179055505050565b60008361088c611ce7565b73ffffffffffffffffffffffffffffffffffffffff163373ffffffffffffffffffffffffffffffffffffffff1614806108f057508073ffffffffffffffffffffffffffffffffffffffff163373ffffffffffffffffffffffffffffffffffffffff16145b806109815750600560008273ffffffffffffffffffffffffffffffffffffffff1673ffffffffffffffffffffffffffffffffffffffff16815260200190815260200160002060003373ffffffffffffffffffffffffffffffffffffffff1673ffffffffffffffffffffffffffffffffffffffff16815260200190815260200160002060009054906101000a900460ff165b6109c0576040517f08c379a00000000000000000000000000000000000000000000000000000000081526004016109b790613a01565b60405180910390fd5b600260008673ffffffffffffffffffffffffffffffffffffffff1673ffffffffffffffffffffffffffffffffffffffff168152602001908152602001600020805490508410610a44576040517f08c379a0000000000000000000000000000000000000000000000000000000008152600401610a3b90613a6d565b60405180910390fd5b600260008673ffffffffffffffffffffffffffffffffffffffff1673ffffffffffffffffffffffffffffffffffffffff1681526020019081526020016000208481548110610a9557610a94613a8d565b5b906000526020600020906007020160020160009054906101000a900473ffffffffffffffffffffffffffffffffffffffff1673ffffffffffffffffffffffffffffffffffffffff163373ffffffffffffffffffffffffffffffffffffffff161480610b865750600560008673ffffffffffffffffffffffffffffffffffffffff1673ffffffffffffffffffffffffffffffffffffffff16815260200190815260200160002060003373ffffffffffffffffffffffffffffffffffffffff1673ffffffffffffffffffffffffffffffffffffffff16815260200190815260200160002060009054906101000a900460ff165b610bc5576040517f08c379a0000000000000000000000000000000000000000000000000000000008152600401610bbc90613c20565b60405180910390fd5b600360008673ffffffffffffffffffffffffffffffffffffffff1673ffffffffffffffffffffffffffffffffffffffff168152602001908152602001600020600085815260200190815260200160002060008473ffffffffffffffffffffffffffffffffffffffff1673ffffffffffffffffffffffffffffffffffffffff16815260200190815260200160002060009054906101000a900460ff169150509392505050565b6060610c74611ce7565b73ffffffffffffffffffffffffffffffffffffffff163373ffffffffffffffffffffffffffffffffffffffff1614610ce1576040517f08c379a0000000000000000000000000000000000000000000000000000000008152600401610cd890613b8e565b60405180910390fd5b600260008373ffffffffffffffffffffffffffffffffffffffff1673ffffffffffffffffffffffffffffffffffffffff168152602001908152602001600020805480602002602001604051908101604052809291908181526020016000905b82821015610f3757838290600052602060002090600702016040518060e0016040529081600082015481526020016001820160009054906101000a900473ffffffffffffffffffffffffffffffffffffffff1673ffffffffffffffffffffffffffffffffffffffff1673ffffffffffffffffffffffffffffffffffffffff1681526020016002820160009054906101000a900473ffffffffffffffffffffffffffffffffffffffff1673ffffffffffffffffffffffffffffffffffffffff1673ffffffffffffffffffffffffffffffffffffffff168152602001600382018054610e2990613aeb565b80601f0160208091040260200160405190810160405280929190818152602001828054610e5590613aeb565b8015610ea25780601f10610e7757610100808354040283529160200191610ea2565b820191906000526020600020905b815481529060010190602001808311610e8557829003601f168201915b50505050508152602001600482015481526020016005820160009054906101000a900460ff1615151515815260200160068201805480602002602001604051908101604052809291908181526020018280548015610f1f57602002820191906000526020600020905b815481526020019060010190808311610f0b575b50505050508152505081526020019060010190610d40565b505050509050919050565b610f4a611ce7565b73ffffffffffffffffffffffffffffffffffffffff163373ffffffffffffffffffffffffffffffffffffffff1614610fb7576040517f08c379a0000000000000000000000000000000000000000000000000000000008152600401610fae90613b8e565b60405180910390fd5b60011515600460008373ffffffffffffffffffffffffffffffffffffffff1673ffffffffffffffffffffffffffffffffffffffff16815260200190815260200160002060008473ffffffffffffffffffffffffffffffffffffffff1673ffffffffffffffffffffffffffffffffffffffff16815260200190815260200160002060009054906101000a900460ff16151514611087576040517f08c379a000000000000000000000000000000000000000000000000000000000815260040161107e90613c8c565b60405180910390fd5b6000600460008373ffffffffffffffffffffffffffffffffffffffff1673ffffffffffffffffffffffffffffffffffffffff16815260200190815260200160002060008473ffffffffffffffffffffffffffffffffffffffff1673ffffffffffffffffffffffffffffffffffffffff16815260200190815260200160002060006101000a81548160ff0219169083151502179055506000600560008473ffffffffffffffffffffffffffffffffffffffff1673ffffffffffffffffffffffffffffffffffffffff16815260200190815260200160002060008373ffffffffffffffffffffffffffffffffffffffff1673ffffffffffffffffffffffffffffffffffffffff16815260200190815260200160002060006101000a81548160ff0219169083151502179055505050565b60606111bf611ce7565b73ffffffffffffffffffffffffffffffffffffffff163373ffffffffffffffffffffffffffffffffffffffff161461122c576040517f08c379a000000000000000000000000000000000000000000000000000000000815260040161122390613b8e565b60405180910390fd5b600260008473ffffffffffffffffffffffffffffffffffffffff1673ffffffffffffffffffffffffffffffffffffffff1681526020019081526020016000208054905082106112b0576040517f08c379a00000000000000000000000000000000000000000000000000000000081526004016112a790613a6d565b60405180910390fd5b600660008473ffffffffffffffffffffffffffffffffffffffff1673ffffffffffffffffffffffffffffffffffffffff1681526020019081526020016000206000838152602001908152602001600020805480602002602001604051908101604052809291908181526020016000905b8282101561145f57838290600052602060002090600402016040518060800160405290816000820160009054906101000a900473ffffffffffffffffffffffffffffffffffffffff1673ffffffffffffffffffffffffffffffffffffffff1673ffffffffffffffffffffffffffffffffffffffff168152602001600182015481526020016002820180546113b390613aeb565b80601f01602080910402602001604051908101604052809291908181526020018280546113df90613aeb565b801561142c5780601f106114015761010080835404028352916020019161142c565b820191906000526020600020905b81548152906001019060200180831161140f57829003601f168201915b505050505081526020016003820160009054906101000a900460ff16151515158152505081526020019060010190611320565b50505050905092915050565b611473612cc5565b61147d6000612d43565b565b600260008473ffffffffffffffffffffffffffffffffffffffff1673ffffffffffffffffffffffffffffffffffffffff168152602001908152602001600020805490508210611503576040517f08c379a00000000000000000000000000000000000000000000000000000000081526004016114fa90613a6d565b60405180910390fd5b6000600260008573ffffffffffffffffffffffffffffffffffffffff1673ffffffffffffffffffffffffffffffffffffffff168152602001908152602001600020838154811061155657611555613a8d565b5b906000526020600020906007020190506000600560008673ffffffffffffffffffffffffffffffffffffffff1673ffffffffffffffffffffffffffffffffffffffff16815260200190815260200160002060003373ffffffffffffffffffffffffffffffffffffffff1673ffffffffffffffffffffffffffffffffffffffff16815260200190815260200160002060009054906101000a900460ff1680156116955750600360008673ffffffffffffffffffffffffffffffffffffffff1673ffffffffffffffffffffffffffffffffffffffff168152602001908152602001600020600085815260200190815260200160002060003373ffffffffffffffffffffffffffffffffffffffff1673ffffffffffffffffffffffffffffffffffffffff16815260200190815260200160002060009054906101000a900460ff165b90508160050160009054906101000a900460ff16156118d457806116ee576040517f08c379a00000000000000000000000000000000000000000000000000000000081526004016116e590613d1e565b60405180910390fd5b60008260060180549050905082600601819080600181540180825580915050600190039060005260206000200160009091909190915055600660008773ffffffffffffffffffffffffffffffffffffffff1673ffffffffffffffffffffffffffffffffffffffff168152602001908152602001600020600086815260200190815260200160002060405180608001604052803373ffffffffffffffffffffffffffffffffffffffff168152602001428152602001868152602001841515815250908060018154018082558091505060019003906000526020600020906004020160009091909190915060008201518160000160006101000a81548173ffffffffffffffffffffffffffffffffffffffff021916908373ffffffffffffffffffffffffffffffffffffffff16021790555060208201518160010155604082015181600201908161183d9190613eea565b5060608201518160030160006101000a81548160ff02191690831515021790555050508573ffffffffffffffffffffffffffffffffffffffff163373ffffffffffffffffffffffffffffffffffffffff167f32e4b9d586ef8959aa99ce37696bdbae0c46d3c125d96ca7628da896dd76c735428787600301876040516118c69493929190614088565b60405180910390a350611ce0565b8160050160009054906101000a900460ff1615611ac957600660008673ffffffffffffffffffffffffffffffffffffffff1673ffffffffffffffffffffffffffffffffffffffff168152602001908152602001600020600085815260200190815260200160002060405180608001604052803373ffffffffffffffffffffffffffffffffffffffff1681526020014281526020016040518060400160405280601b81526020017f446f63756d656e742046657463686564204e6f742076616c69642100000000008152508152602001831515815250908060018154018082558091505060019003906000526020600020906004020160009091909190915060008201518160000160006101000a81548173ffffffffffffffffffffffffffffffffffffffff021916908373ffffffffffffffffffffffffffffffffffffffff160217905550602082015181600101556040820151816002019081611a389190613eea565b5060608201518160030160006101000a81548160ff02191690831515021790555050508473ffffffffffffffffffffffffffffffffffffffff163373ffffffffffffffffffffffffffffffffffffffff167f32e4b9d586ef8959aa99ce37696bdbae0c46d3c125d96ca7628da896dd76c735428685604051611abc93929190614127565b60405180910390a3611cdf565b6000905060008260060180549050905082600601819080600181540180825580915050600190039060005260206000200160009091909190915055600660008773ffffffffffffffffffffffffffffffffffffffff1673ffffffffffffffffffffffffffffffffffffffff168152602001908152602001600020600086815260200190815260200160002060405180608001604052803373ffffffffffffffffffffffffffffffffffffffff1681526020014281526020016040518060400160405280601d81526020017f634c49454e54204e6f7420616c6c6f77656420746f20416363657373210000008152508152602001841515815250908060018154018082558091505060019003906000526020600020906004020160009091909190915060008201518160000160006101000a81548173ffffffffffffffffffffffffffffffffffffffff021916908373ffffffffffffffffffffffffffffffffffffffff160217905550602082015181600101556040820151816002019081611c519190613eea565b5060608201518160030160006101000a81548160ff02191690831515021790555050508573ffffffffffffffffffffffffffffffffffffffff163373ffffffffffffffffffffffffffffffffffffffff167f32e4b9d586ef8959aa99ce37696bdbae0c46d3c125d96ca7628da896dd76c735428786604051611cd5939291906141c4565b60405180910390a3505b5b5050505050565b60008060009054906101000a900473ffffffffffffffffffffffffffffffffffffffff16905090565b6060611d1a611ce7565b73ffffffffffffffffffffffffffffffffffffffff163373ffffffffffffffffffffffffffffffffffffffff1614611d87576040517f08c379a0000000000000000000000000000000000000000000000000000000008152600401611d7e90613b8e565b60405180910390fd5b600160003373ffffffffffffffffffffffffffffffffffffffff1673ffffffffffffffffffffffffffffffffffffffff168152602001908152602001600020805480602002602001604051908101604052809291908181526020016000905b82821015611ece57838290600052602060002090600302016040518060600160405290816000820160009054906101000a900473ffffffffffffffffffffffffffffffffffffffff1673ffffffffffffffffffffffffffffffffffffffff1673ffffffffffffffffffffffffffffffffffffffff1681526020016001820160009054906101000a900473ffffffffffffffffffffffffffffffffffffffff1673ffffffffffffffffffffffffffffffffffffffff1673ffffffffffffffffffffffffffffffffffffffff16815260200160028201548152505081526020019060010190611de6565b50505050905090565b6000600560008473ffffffffffffffffffffffffffffffffffffffff1673ffffffffffffffffffffffffffffffffffffffff16815260200190815260200160002060008373ffffffffffffffffffffffffffffffffffffffff1673ffffffffffffffffffffffffffffffffffffffff16815260200190815260200160002060009054906101000a900460ff16905092915050565b828073ffffffffffffffffffffffffffffffffffffffff163373ffffffffffffffffffffffffffffffffffffffff1614611fda576040517f08c379a0000000000000000000000000000000000000000000000000000000008152600401611fd190613a01565b60405180910390fd5b60004290506000600260003373ffffffffffffffffffffffffffffffffffffffff1673ffffffffffffffffffffffffffffffffffffffff16815260200190815260200160002080549050905060006040518060e001604052808381526020018873ffffffffffffffffffffffffffffffffffffffff1681526020018773ffffffffffffffffffffffffffffffffffffffff168152602001868152602001848152602001600115158152602001600067ffffffffffffffff8111156120a1576120a06135cb565b5b6040519080825280602002602001820160405280156120cf5781602001602082028036833780820191505090505b508152509050600260003373ffffffffffffffffffffffffffffffffffffffff1673ffffffffffffffffffffffffffffffffffffffff1681526020019081526020016000208190806001815401808255809150506001900390600052602060002090600702016000909190919091506000820151816000015560208201518160010160006101000a81548173ffffffffffffffffffffffffffffffffffffffff021916908373ffffffffffffffffffffffffffffffffffffffff16021790555060408201518160020160006101000a81548173ffffffffffffffffffffffffffffffffffffffff021916908373ffffffffffffffffffffffffffffffffffffffff16021790555060608201518160030190816121eb9190613eea565b506080820151816004015560a08201518160050160006101000a81548160ff02191690831515021790555060c0820151816006019080519060200190612232929190612e7a565b5050506001600460008973ffffffffffffffffffffffffffffffffffffffff1673ffffffffffffffffffffffffffffffffffffffff16815260200190815260200160002060008873ffffffffffffffffffffffffffffffffffffffff1673ffffffffffffffffffffffffffffffffffffffff16815260200190815260200160002060006101000a81548160ff0219169083151502179055506001600560008973ffffffffffffffffffffffffffffffffffffffff1673ffffffffffffffffffffffffffffffffffffffff16815260200190815260200160002060008873ffffffffffffffffffffffffffffffffffffffff1673ffffffffffffffffffffffffffffffffffffffff16815260200190815260200160002060006101000a81548160ff021916908315150217905550600660003373ffffffffffffffffffffffffffffffffffffffff1673ffffffffffffffffffffffffffffffffffffffff168152602001908152602001600020600083815260200190815260200160002060405180608001604052803373ffffffffffffffffffffffffffffffffffffffff16815260200142815260200160405180606001604052806034815260200161436260349139815260200160011515815250908060018154018082558091505060019003906000526020600020906004020160009091909190915060008201518160000160006101000a81548173ffffffffffffffffffffffffffffffffffffffff021916908373ffffffffffffffffffffffffffffffffffffffff1602179055506020820151816001015560408201518160020190816124909190613eea565b5060608201518160030160006101000a81548160ff0219169083151502179055505050600060405180606001604052808973ffffffffffffffffffffffffffffffffffffffff1681526020018873ffffffffffffffffffffffffffffffffffffffff1681526020018481525090506001600061250a611ce7565b73ffffffffffffffffffffffffffffffffffffffff1673ffffffffffffffffffffffffffffffffffffffff16815260200190815260200160002081908060018154018082558091505060019003906000526020600020906003020160009091909190915060008201518160000160006101000a81548173ffffffffffffffffffffffffffffffffffffffff021916908373ffffffffffffffffffffffffffffffffffffffff16021790555060208201518160010160006101000a81548173ffffffffffffffffffffffffffffffffffffffff021916908373ffffffffffffffffffffffffffffffffffffffff1602179055506040820151816002015550508673ffffffffffffffffffffffffffffffffffffffff168873ffffffffffffffffffffffffffffffffffffffff167f7a258764a3b2b35077d20a06a3382f6f7cbe6ba4a76a7402102fd275d88e0e68856040516126659190614215565b60405180910390a35050505050505050565b6060818073ffffffffffffffffffffffffffffffffffffffff163373ffffffffffffffffffffffffffffffffffffffff16146126e8576040517f08c379a00000000000000000000000000000000000000000000000000000000081526004016126df90613a01565b60405180910390fd5b600260008473ffffffffffffffffffffffffffffffffffffffff1673ffffffffffffffffffffffffffffffffffffffff168152602001908152602001600020805480602002602001604051908101604052809291908181526020016000905b8282101561293e57838290600052602060002090600702016040518060e0016040529081600082015481526020016001820160009054906101000a900473ffffffffffffffffffffffffffffffffffffffff1673ffffffffffffffffffffffffffffffffffffffff1673ffffffffffffffffffffffffffffffffffffffff1681526020016002820160009054906101000a900473ffffffffffffffffffffffffffffffffffffffff1673ffffffffffffffffffffffffffffffffffffffff1673ffffffffffffffffffffffffffffffffffffffff16815260200160038201805461283090613aeb565b80601f016020809104026020016040519081016040528092919081815260200182805461285c90613aeb565b80156128a95780601f1061287e576101008083540402835291602001916128a9565b820191906000526020600020905b81548152906001019060200180831161288c57829003601f168201915b50505050508152602001600482015481526020016005820160009054906101000a900460ff161515151581526020016006820180548060200260200160405190810160405280929190818152602001828054801561292657602002820191906000526020600020905b815481526020019060010190808311612912575b50505050508152505081526020019060010190612747565b50505050915050919050565b612952612cc5565b600073ffffffffffffffffffffffffffffffffffffffff168173ffffffffffffffffffffffffffffffffffffffff16036129c1576040517f08c379a00000000000000000000000000000000000000000000000000000000081526004016129b8906142a2565b60405180910390fd5b6129ca81612d43565b50565b6129d5611ce7565b73ffffffffffffffffffffffffffffffffffffffff163373ffffffffffffffffffffffffffffffffffffffff1614612a42576040517f08c379a0000000000000000000000000000000000000000000000000000000008152600401612a3990613b8e565b60405180910390fd5b600260008573ffffffffffffffffffffffffffffffffffffffff1673ffffffffffffffffffffffffffffffffffffffff168152602001908152602001600020805490508310612ac6576040517f08c379a0000000000000000000000000000000000000000000000000000000008152600401612abd90613a6d565b60405180910390fd5b80600360008673ffffffffffffffffffffffffffffffffffffffff1673ffffffffffffffffffffffffffffffffffffffff168152602001908152602001600020600085815260200190815260200160002060008473ffffffffffffffffffffffffffffffffffffffff1673ffffffffffffffffffffffffffffffffffffffff16815260200190815260200160002060006101000a81548160ff021916908315150217905550600660008573ffffffffffffffffffffffffffffffffffffffff1673ffffffffffffffffffffffffffffffffffffffff168152602001908152602001600020600084815260200190815260200160002060405180608001604052803373ffffffffffffffffffffffffffffffffffffffff16815260200142815260200160405180606001604052806033815260200161432f60339139815260200160011515815250908060018154018082558091505060019003906000526020600020906004020160009091909190915060008201518160000160006101000a81548173ffffffffffffffffffffffffffffffffffffffff021916908373ffffffffffffffffffffffffffffffffffffffff160217905550602082015181600101556040820151816002019081612c9c9190613eea565b5060608201518160030160006101000a81548160ff021916908315150217905550505050505050565b612ccd612e07565b73ffffffffffffffffffffffffffffffffffffffff16612ceb611ce7565b73ffffffffffffffffffffffffffffffffffffffff1614612d41576040517f08c379a0000000000000000000000000000000000000000000000000000000008152600401612d389061430e565b60405180910390fd5b565b60008060009054906101000a900473ffffffffffffffffffffffffffffffffffffffff169050816000806101000a81548173ffffffffffffffffffffffffffffffffffffffff021916908373ffffffffffffffffffffffffffffffffffffffff1602179055508173ffffffffffffffffffffffffffffffffffffffff168173ffffffffffffffffffffffffffffffffffffffff167f8be0079c531659141344cd1fd0a4f28419497f9722a3daafe3b4186f6b6457e060405160405180910390a35050565b600033905090565b6040518060e0016040528060008152602001600073ffffffffffffffffffffffffffffffffffffffff168152602001600073ffffffffffffffffffffffffffffffffffffffff1681526020016060815260200160008152602001600015158152602001606081525090565b828054828255906000526020600020908101928215612eb6579160200282015b82811115612eb5578251825591602001919060010190612e9a565b5b509050612ec39190612ec7565b5090565b5b80821115612ee0576000816000905550600101612ec8565b5090565b6000604051905090565b600080fd5b600080fd5b600073ffffffffffffffffffffffffffffffffffffffff82169050919050565b6000612f2382612ef8565b9050919050565b612f3381612f18565b8114612f3e57600080fd5b50565b600081359050612f5081612f2a565b92915050565b6000819050919050565b612f6981612f56565b8114612f7457600080fd5b50565b600081359050612f8681612f60565b92915050565b60008060408385031215612fa357612fa2612eee565b5b6000612fb185828601612f41565b9250506020612fc285828601612f77565b9150509250929050565b612fd581612f56565b82525050565b612fe481612f18565b82525050565b600081519050919050565b600082825260208201905092915050565b60005b83811015613024578082015181840152602081019050613009565b60008484015250505050565b6000601f19601f8301169050919050565b600061304c82612fea565b6130568185612ff5565b9350613066818560208601613006565b61306f81613030565b840191505092915050565b60008115159050919050565b61308f8161307a565b82525050565b600081519050919050565b600082825260208201905092915050565b6000819050602082019050919050565b60006130cd8383612fcc565b60208301905092915050565b6000602082019050919050565b60006130f182613095565b6130fb81856130a0565b9350613106836130b1565b8060005b8381101561313757815161311e88826130c1565b9750613129836130d9565b92505060018101905061310a565b5085935050505092915050565b600060e08301600083015161315c6000860182612fcc565b50602083015161316f6020860182612fdb565b5060408301516131826040860182612fdb565b506060830151848203606086015261319a8282613041565b91505060808301516131af6080860182612fcc565b5060a08301516131c260a0860182613086565b5060c083015184820360c08601526131da82826130e6565b9150508091505092915050565b600060208201905081810360008301526132018184613144565b905092915050565b60008060006060848603121561322257613221612eee565b5b600061323086828701612f41565b935050602061324186828701612f77565b925050604061325286828701612f41565b9150509250925092565b6132658161307a565b82525050565b6000602082019050613280600083018461325c565b92915050565b60006020828403121561329c5761329b612eee565b5b60006132aa84828501612f41565b91505092915050565b600081519050919050565b600082825260208201905092915050565b6000819050602082019050919050565b600060e0830160008301516132f76000860182612fcc565b50602083015161330a6020860182612fdb565b50604083015161331d6040860182612fdb565b50606083015184820360608601526133358282613041565b915050608083015161334a6080860182612fcc565b5060a083015161335d60a0860182613086565b5060c083015184820360c086015261337582826130e6565b9150508091505092915050565b600061338e83836132df565b905092915050565b6000602082019050919050565b60006133ae826132b3565b6133b881856132be565b9350836020820285016133ca856132cf565b8060005b8581101561340657848403895281516133e78582613382565b94506133f283613396565b925060208a019950506001810190506133ce565b50829750879550505050505092915050565b6000602082019050818103600083015261343281846133a3565b905092915050565b6000806040838503121561345157613450612eee565b5b600061345f85828601612f41565b925050602061347085828601612f41565b9150509250929050565b600081519050919050565b600082825260208201905092915050565b6000819050602082019050919050565b60006080830160008301516134be6000860182612fdb565b5060208301516134d16020860182612fcc565b50604083015184820360408601526134e98282613041565b91505060608301516134fe6060860182613086565b508091505092915050565b600061351583836134a6565b905092915050565b6000602082019050919050565b60006135358261347a565b61353f8185613485565b93508360208202850161355185613496565b8060005b8581101561358d578484038952815161356e8582613509565b94506135798361351d565b925060208a01995050600181019050613555565b50829750879550505050505092915050565b600060208201905081810360008301526135b9818461352a565b905092915050565b600080fd5b600080fd5b7f4e487b7100000000000000000000000000000000000000000000000000000000600052604160045260246000fd5b61360382613030565b810181811067ffffffffffffffff82111715613622576136216135cb565b5b80604052505050565b6000613635612ee4565b905061364182826135fa565b919050565b600067ffffffffffffffff821115613661576136606135cb565b5b61366a82613030565b9050602081019050919050565b82818337600083830152505050565b600061369961369484613646565b61362b565b9050828152602081018484840111156136b5576136b46135c6565b5b6136c0848285613677565b509392505050565b600082601f8301126136dd576136dc6135c1565b5b81356136ed848260208601613686565b91505092915050565b60008060006060848603121561370f5761370e612eee565b5b600061371d86828701612f41565b935050602061372e86828701612f77565b925050604084013567ffffffffffffffff81111561374f5761374e612ef3565b5b61375b868287016136c8565b9150509250925092565b61376e81612f18565b82525050565b60006020820190506137896000830184613765565b92915050565b600081519050919050565b600082825260208201905092915050565b6000819050602082019050919050565b6060820160008201516137d16000850182612fdb565b5060208201516137e46020850182612fdb565b5060408201516137f76040850182612fcc565b50505050565b600061380983836137bb565b60608301905092915050565b6000602082019050919050565b600061382d8261378f565b613837818561379a565b9350613842836137ab565b8060005b8381101561387357815161385a88826137fd565b975061386583613815565b925050600181019050613846565b5085935050505092915050565b6000602082019050818103600083015261389a8184613822565b905092915050565b6000806000606084860312156138bb576138ba612eee565b5b60006138c986828701612f41565b93505060206138da86828701612f41565b925050604084013567ffffffffffffffff8111156138fb576138fa612ef3565b5b613907868287016136c8565b9150509250925092565b61391a8161307a565b811461392557600080fd5b50565b60008135905061393781613911565b92915050565b6000806000806080858703121561395757613956612eee565b5b600061396587828801612f41565b945050602061397687828801612f77565b935050604061398787828801612f41565b925050606061399887828801613928565b91505092959194509250565b600082825260208201905092915050565b7f4e6f7420617574686f72697a6564000000000000000000000000000000000000600082015250565b60006139eb600e836139a4565b91506139f6826139b5565b602082019050919050565b60006020820190508181036000830152613a1a816139de565b9050919050565b7f496e76616c696420696e64657800000000000000000000000000000000000000600082015250565b6000613a57600d836139a4565b9150613a6282613a21565b602082019050919050565b60006020820190508181036000830152613a8681613a4a565b9050919050565b7f4e487b7100000000000000000000000000000000000000000000000000000000600052603260045260246000fd5b7f4e487b7100000000000000000000000000000000000000000000000000000000600052602260045260246000fd5b60006002820490506001821680613b0357607f821691505b602082108103613b1657613b15613abc565b5b50919050565b7f4f6e6c79207468652062726f6b65722063616e2063616c6c207468697320667560008201527f6e6374696f6e0000000000000000000000000000000000000000000000000000602082015250565b6000613b786026836139a4565b9150613b8382613b1c565b604082019050919050565b60006020820190508181036000830152613ba781613b6b565b9050919050565b7f4e6f7420617574686f72697a656420746f206765742061636365737320636f6e60008201527f74726f6c00000000000000000000000000000000000000000000000000000000602082015250565b6000613c0a6024836139a4565b9150613c1582613bae565b604082019050919050565b60006020820190508181036000830152613c3981613bfd565b9050919050565b7f416363657373206e6f74206772616e7465640000000000000000000000000000600082015250565b6000613c766012836139a4565b9150613c8182613c40565b602082019050919050565b60006020820190508181036000830152613ca581613c69565b9050919050565b7f416363657373206e6f74206772616e74656420746f207669657720646f63756d60008201527f656e740000000000000000000000000000000000000000000000000000000000602082015250565b6000613d086023836139a4565b9150613d1382613cac565b604082019050919050565b60006020820190508181036000830152613d3781613cfb565b9050919050565b60008190508160005260206000209050919050565b60006020601f8301049050919050565b600082821b905092915050565b600060088302613da07fffffffffffffffffffffffffffffffffffffffffffffffffffffffffffffffff82613d63565b613daa8683613d63565b95508019841693508086168417925050509392505050565b6000819050919050565b6000613de7613de2613ddd84612f56565b613dc2565b612f56565b9050919050565b6000819050919050565b613e0183613dcc565b613e15613e0d82613dee565b848454613d70565b825550505050565b600090565b613e2a613e1d565b613e35818484613df8565b505050565b5b81811015613e5957613e4e600082613e22565b600181019050613e3b565b5050565b601f821115613e9e57613e6f81613d3e565b613e7884613d53565b81016020851015613e87578190505b613e9b613e9385613d53565b830182613e3a565b50505b505050565b600082821c905092915050565b6000613ec160001984600802613ea3565b1980831691505092915050565b6000613eda8383613eb0565b9150826002028217905092915050565b613ef382612fea565b67ffffffffffffffff811115613f0c57613f0b6135cb565b5b613f168254613aeb565b613f21828285613e5d565b600060209050601f831160018114613f545760008415613f42578287015190505b613f4c8582613ece565b865550613fb4565b601f198416613f6286613d3e565b60005b82811015613f8a57848901518255600182019150602085019450602081019050613f65565b86831015613fa75784890151613fa3601f891682613eb0565b8355505b6001600288020188555050505b505050505050565b613fc581612f56565b82525050565b6000613fd682612fea565b613fe081856139a4565b9350613ff0818560208601613006565b613ff981613030565b840191505092915050565b6000815461401181613aeb565b61401b81866139a4565b94506001821660008114614036576001811461404c5761407f565b60ff19831686528115156020028601935061407f565b61405585613d3e565b60005b8381101561407757815481890152600182019150602081019050614058565b808801955050505b50505092915050565b600060808201905061409d6000830187613fbc565b81810360208301526140af8186613fcb565b905081810360408301526140c38185614004565b90506140d2606083018461325c565b95945050505050565b7f446f63756d656e742046657463686564204e6f742076616c6964210000000000600082015250565b6000614111601b836139a4565b915061411c826140db565b602082019050919050565b600060808201905061413c6000830186613fbc565b818103602083015261414e8185613fcb565b9050818103604083015261416181614104565b9050614170606083018461325c565b949350505050565b7f43616e7420416363657373204861736800000000000000000000000000000000600082015250565b60006141ae6010836139a4565b91506141b982614178565b602082019050919050565b60006080820190506141d96000830186613fbc565b81810360208301526141eb8185613fcb565b905081810360408301526141fe816141a1565b905061420d606083018461325c565b949350505050565b600060208201905061422a6000830184613fbc565b92915050565b7f4f776e61626c653a206e6577206f776e657220697320746865207a65726f206160008201527f6464726573730000000000000000000000000000000000000000000000000000602082015250565b600061428c6026836139a4565b915061429782614230565b604082019050919050565b600060208201905081810360008301526142bb8161427f565b9050919050565b7f4f776e61626c653a2063616c6c6572206973206e6f7420746865206f776e6572600082015250565b60006142f86020836139a4565b9150614303826142c2565b602082019050919050565b60006020820190508181036000830152614327816142eb565b905091905056fe42726f6b657220476976696e6720446f63756d656e742041636365737320746f205265737065637469766520436c69656e7421496e737572616e6365204669726d2047656e65726174657320496e737572616e636520436c61696d20666f7220636c49454e5421a264697066735822122084e929abcd0c32ee06b227122f65e674974561ea9448bf6317543f064de7ca4d64736f6c63430008130033",
  "linkReferences": {},
  "deployedLinkReferences": {}
}